{
  "contractName": "UniversityDegreeChain",
  "abi": [
    {
      "inputs": [],
      "payable": false,
      "stateMutability": "nonpayable",
      "type": "constructor"
    },
    {
      "constant": true,
      "inputs": [],
      "name": "CIVIL_Hod",
      "outputs": [
        {
          "internalType": "address",
          "name": "",
          "type": "address"
        }
      ],
      "payable": false,
      "stateMutability": "view",
      "type": "function"
    },
    {
      "constant": true,
      "inputs": [],
      "name": "CSE_Hod",
      "outputs": [
        {
          "internalType": "address",
          "name": "",
          "type": "address"
        }
      ],
      "payable": false,
      "stateMutability": "view",
      "type": "function"
    },
    {
      "constant": true,
      "inputs": [],
      "name": "CompRegNo",
      "outputs": [
        {
          "internalType": "uint256",
          "name": "",
          "type": "uint256"
        }
      ],
      "payable": false,
      "stateMutability": "view",
      "type": "function"
    },
    {
      "constant": true,
      "inputs": [
        {
          "internalType": "uint256",
          "name": "",
          "type": "uint256"
        }
      ],
      "name": "Companies",
      "outputs": [
        {
          "internalType": "uint256",
          "name": "CRN_No",
          "type": "uint256"
        },
        {
          "internalType": "string",
          "name": "Cname",
          "type": "string"
        },
        {
          "internalType": "address",
          "name": "account",
          "type": "address"
        },
        {
          "internalType": "string",
          "name": "YoE",
          "type": "string"
        },
        {
          "internalType": "string",
          "name": "DoW",
          "type": "string"
        },
        {
          "internalType": "string",
          "name": "location",
          "type": "string"
        },
        {
          "internalType": "bool",
          "name": "DirectorApproved",
          "type": "bool"
        }
      ],
      "payable": false,
      "stateMutability": "view",
      "type": "function"
    },
    {
      "constant": true,
      "inputs": [
        {
          "internalType": "uint256",
          "name": "",
          "type": "uint256"
        }
      ],
      "name": "CompaniesRequest",
      "outputs": [
        {
          "internalType": "uint256",
          "name": "req_id",
          "type": "uint256"
        },
        {
          "internalType": "string",
          "name": "company_name",
          "type": "string"
        },
        {
          "internalType": "uint256",
          "name": "student_roll_no",
          "type": "uint256"
        },
        {
          "internalType": "bool",
          "name": "isReqApproved",
          "type": "bool"
        }
      ],
      "payable": false,
      "stateMutability": "view",
      "type": "function"
    },
    {
      "constant": true,
      "inputs": [],
      "name": "Director",
      "outputs": [
        {
          "internalType": "address",
          "name": "",
          "type": "address"
        }
      ],
      "payable": false,
      "stateMutability": "view",
      "type": "function"
    },
    {
      "constant": true,
      "inputs": [],
      "name": "EE_Hod",
      "outputs": [
        {
          "internalType": "address",
          "name": "",
          "type": "address"
        }
      ],
      "payable": false,
      "stateMutability": "view",
      "type": "function"
    },
    {
      "constant": true,
      "inputs": [
        {
          "internalType": "uint256",
          "name": "",
          "type": "uint256"
        }
      ],
      "name": "HODs",
      "outputs": [
        {
          "internalType": "address",
          "name": "account",
          "type": "address"
        },
        {
          "internalType": "string",
          "name": "unqID",
          "type": "string"
        },
        {
          "internalType": "uint256",
          "name": "depart",
          "type": "uint256"
        },
        {
          "internalType": "string",
          "name": "name",
          "type": "string"
        },
        {
          "internalType": "bool",
          "name": "isHod",
          "type": "bool"
        }
      ],
      "payable": false,
      "stateMutability": "view",
      "type": "function"
    },
    {
      "constant": true,
      "inputs": [],
      "name": "HodAddressCount",
      "outputs": [
        {
          "internalType": "uint256",
          "name": "",
          "type": "uint256"
        }
      ],
      "payable": false,
      "stateMutability": "view",
      "type": "function"
    },
    {
      "constant": true,
      "inputs": [],
      "name": "MECH_Hod",
      "outputs": [
        {
          "internalType": "address",
          "name": "",
          "type": "address"
        }
      ],
      "payable": false,
      "stateMutability": "view",
      "type": "function"
    },
    {
      "constant": true,
      "inputs": [
        {
          "internalType": "address",
          "name": "",
          "type": "address"
        }
      ],
      "name": "SemesterDetails",
      "outputs": [
        {
          "internalType": "address",
          "name": "account",
          "type": "address"
        },
        {
          "internalType": "uint256",
          "name": "semester1",
          "type": "uint256"
        },
        {
          "internalType": "uint256",
          "name": "semester2",
          "type": "uint256"
        },
        {
          "internalType": "uint256",
          "name": "semester3",
          "type": "uint256"
        },
        {
          "internalType": "uint256",
          "name": "semester4",
          "type": "uint256"
        },
        {
          "internalType": "uint256",
          "name": "semester5",
          "type": "uint256"
        },
        {
          "internalType": "uint256",
          "name": "semester6",
          "type": "uint256"
        },
        {
          "internalType": "uint256",
          "name": "semester7",
          "type": "uint256"
        },
        {
          "internalType": "uint256",
          "name": "semester8",
          "type": "uint256"
        },
        {
          "internalType": "bool",
          "name": "active_backlog",
          "type": "bool"
        },
        {
          "internalType": "bool",
          "name": "isHodVerified",
          "type": "bool"
        },
        {
          "internalType": "bool",
          "name": "isDirVerified",
          "type": "bool"
        }
      ],
      "payable": false,
      "stateMutability": "view",
      "type": "function"
    },
    {
      "constant": true,
      "inputs": [],
      "name": "StudEnrollNo",
      "outputs": [
        {
          "internalType": "uint256",
          "name": "",
          "type": "uint256"
        }
      ],
      "payable": false,
      "stateMutability": "view",
      "type": "function"
    },
    {
      "constant": true,
      "inputs": [
        {
          "internalType": "uint256",
          "name": "",
          "type": "uint256"
        }
      ],
      "name": "Students",
      "outputs": [
        {
          "internalType": "address",
          "name": "account",
          "type": "address"
        },
        {
          "internalType": "uint256",
          "name": "Enroll_no",
          "type": "uint256"
        },
        {
          "internalType": "string",
          "name": "Roll_no",
          "type": "string"
        },
        {
          "internalType": "string",
          "name": "name",
          "type": "string"
        },
        {
          "internalType": "uint256",
          "name": "depart",
          "type": "uint256"
        },
        {
          "internalType": "uint256",
          "name": "program",
          "type": "uint256"
        },
        {
          "internalType": "string",
          "name": "doj",
          "type": "string"
        },
        {
          "internalType": "bool",
          "name": "HODVerified",
          "type": "bool"
        },
        {
          "internalType": "bool",
          "name": "DirectorVerified",
          "type": "bool"
        }
      ],
      "payable": false,
      "stateMutability": "view",
      "type": "function"
    },
    {
      "constant": true,
      "inputs": [],
      "name": "requestId",
      "outputs": [
        {
          "internalType": "uint256",
          "name": "",
          "type": "uint256"
        }
      ],
      "payable": false,
      "stateMutability": "view",
      "type": "function"
    },
    {
      "constant": false,
      "inputs": [
        {
          "internalType": "string",
          "name": "_name",
          "type": "string"
        },
        {
          "internalType": "string",
          "name": "_StudRollNo",
          "type": "string"
        },
        {
          "internalType": "uint256",
          "name": "_depart",
          "type": "uint256"
        },
        {
          "internalType": "uint256",
          "name": "_program",
          "type": "uint256"
        },
        {
          "internalType": "string",
          "name": "_doj",
          "type": "string"
        },
        {
          "internalType": "bool",
          "name": "_HODVerified",
          "type": "bool"
        },
        {
          "internalType": "bool",
          "name": "_DirectorVerified",
          "type": "bool"
        }
      ],
      "name": "addStudent",
      "outputs": [],
      "payable": false,
      "stateMutability": "nonpayable",
      "type": "function"
    },
    {
      "constant": false,
      "inputs": [
        {
          "internalType": "uint256",
          "name": "_depart",
          "type": "uint256"
        },
        {
          "internalType": "string",
          "name": "_name",
          "type": "string"
        },
        {
          "internalType": "string",
          "name": "_unqID",
          "type": "string"
        },
        {
          "internalType": "bool",
          "name": "_isHod",
          "type": "bool"
        }
      ],
      "name": "addHOD",
      "outputs": [],
      "payable": false,
      "stateMutability": "nonpayable",
      "type": "function"
    },
    {
      "constant": false,
      "inputs": [
        {
          "internalType": "string",
          "name": "_Cname",
          "type": "string"
        },
        {
          "internalType": "string",
          "name": "_YoE",
          "type": "string"
        },
        {
          "internalType": "string",
          "name": "_DoW",
          "type": "string"
        },
        {
          "internalType": "string",
          "name": "_location",
          "type": "string"
        },
        {
          "internalType": "bool",
          "name": "_DirectorApproved",
          "type": "bool"
        }
      ],
      "name": "addCompany",
      "outputs": [],
      "payable": false,
      "stateMutability": "nonpayable",
      "type": "function"
    },
    {
      "constant": false,
      "inputs": [
        {
          "internalType": "uint256",
          "name": "_id",
          "type": "uint256"
        }
      ],
      "name": "Verify_HOD",
      "outputs": [],
      "payable": false,
      "stateMutability": "nonpayable",
      "type": "function"
    },
    {
      "constant": false,
      "inputs": [
        {
          "internalType": "uint256",
          "name": "_id",
          "type": "uint256"
        }
      ],
      "name": "Approve_Company",
      "outputs": [],
      "payable": false,
      "stateMutability": "nonpayable",
      "type": "function"
    },
    {
      "constant": false,
      "inputs": [
        {
          "internalType": "address",
          "name": "_Saccount",
          "type": "address"
        },
        {
          "internalType": "uint256",
          "name": "_SrollNo",
          "type": "uint256"
        }
      ],
      "name": "Company_RequestforStudent",
      "outputs": [],
      "payable": false,
      "stateMutability": "nonpayable",
      "type": "function"
    },
    {
      "constant": false,
      "inputs": [
        {
          "internalType": "uint256",
          "name": "_req_id",
          "type": "uint256"
        }
      ],
      "name": "Approve_CompanyRequest",
      "outputs": [],
      "payable": false,
      "stateMutability": "nonpayable",
      "type": "function"
    },
    {
      "constant": false,
      "inputs": [
        {
          "internalType": "uint256",
          "name": "_sem1",
          "type": "uint256"
        },
        {
          "internalType": "uint256",
          "name": "_sem2",
          "type": "uint256"
        },
        {
          "internalType": "uint256",
          "name": "_sem3",
          "type": "uint256"
        },
        {
          "internalType": "uint256",
          "name": "_sem4",
          "type": "uint256"
        },
        {
          "internalType": "uint256",
          "name": "_sem5",
          "type": "uint256"
        },
        {
          "internalType": "uint256",
          "name": "_sem6",
          "type": "uint256"
        },
        {
          "internalType": "uint256",
          "name": "_sem7",
          "type": "uint256"
        },
        {
          "internalType": "uint256",
          "name": "_sem8",
          "type": "uint256"
        },
        {
          "internalType": "bool",
          "name": "_backlog",
          "type": "bool"
        }
      ],
      "name": "Update_SemesterGrades",
      "outputs": [],
      "payable": false,
      "stateMutability": "nonpayable",
      "type": "function"
    },
    {
      "constant": false,
      "inputs": [
        {
          "internalType": "uint256",
          "name": "_id",
          "type": "uint256"
        }
      ],
      "name": "VerificationByHODs",
      "outputs": [],
      "payable": false,
      "stateMutability": "nonpayable",
      "type": "function"
    },
    {
      "constant": false,
      "inputs": [
        {
          "internalType": "uint256",
          "name": "_id",
          "type": "uint256"
        }
      ],
      "name": "Student_VerificationByDirector",
      "outputs": [],
      "payable": false,
      "stateMutability": "nonpayable",
      "type": "function"
    },
    {
      "constant": false,
      "inputs": [
        {
          "internalType": "uint256",
          "name": "_id",
          "type": "uint256"
        }
      ],
      "name": "All_Data_Verification",
      "outputs": [],
      "payable": false,
      "stateMutability": "nonpayable",
      "type": "function"
    }
  ],
  "bytecode": "0x60806040526000600555600060075560006009556000600b5534801561002457600080fd5b50600080546001600160a01b031916331790556147b6806100466000396000f3fe608060405234801561001057600080fd5b50600436106101725760003560e01c806350129a69116100de578063acb1b5c711610097578063c888ba8b11610071578063c888ba8b146109eb578063e73973cd14610a08578063edd4172d14610a10578063efeda3d714610c4557610172565b8063acb1b5c7146109be578063bc592bb0146109c6578063c25bac21146109ce57610172565b806350129a69146106a457806351b5fff2146107c05780635590d867146107ec57806357c8d71d1461080957806369230c46146109ae57806370e0bf69146109b657610172565b80632f389d2c116101305780632f389d2c146102d85780633daf03e01461036d5780634008d4c51461038a578063446af23c146103a757806349d6cff7146103af5780634b4a54121461057257610172565b80626d6cae14610177578063025e278014610191578063052931561461023c5780630b0019ba146102605780631e1dc92f1461027f5780632f33e70b14610287575b600080fd5b61017f610e37565b60408051918252519081900360200190f35b6101ae600480360360208110156101a757600080fd5b5035610e3d565b60408051858152908101839052811515606082015260806020808301828152865192840192909252855160a084019187019080838360005b838110156101fe5781810151838201526020016101e6565b50505050905090810190601f16801561022b5780820380516001836020036101000a031916815260200191505b509550505050505060405180910390f35b610244610ef4565b604080516001600160a01b039092168252519081900360200190f35b61027d6004803603602081101561027657600080fd5b5035610f03565b005b610244611068565b61027d600480360361012081101561029e57600080fd5b5080359060208101359060408101359060608101359060808101359060a08101359060c08101359060e08101359061010001351515611077565b6102fe600480360360208110156102ee57600080fd5b50356001600160a01b03166113fa565b604080516001600160a01b03909d168d5260208d019b909b528b8b019990995260608b019790975260808a019590955260a089019390935260c088019190915260e087015261010086015215156101208501521515610140840152151561016083015251908190036101800190f35b61027d6004803603602081101561038357600080fd5b503561146b565b61027d600480360360208110156103a057600080fd5b50356117ac565b61017f611aa6565b61027d600480360360e08110156103c557600080fd5b810190602081018135600160201b8111156103df57600080fd5b8201836020820111156103f157600080fd5b803590602001918460018302840111600160201b8311171561041257600080fd5b91908080601f0160208091040260200160405190810160405280939291908181526020018383808284376000920191909152509295949360208101935035915050600160201b81111561046457600080fd5b82018360208201111561047657600080fd5b803590602001918460018302840111600160201b8311171561049757600080fd5b91908080601f0160208091040260200160405190810160405280939291908181526020018383808284376000920191909152509295843595602086013595919450925060608101915060400135600160201b8111156104f557600080fd5b82018360208201111561050757600080fd5b803590602001918460018302840111600160201b8311171561052857600080fd5b91908080601f016020809104026020016040519081016040528093929190818152602001838380828437600092019190915250929550505050803515159150602001351515611aac565b61027d6004803603608081101561058857600080fd5b81359190810190604081016020820135600160201b8111156105a957600080fd5b8201836020820111156105bb57600080fd5b803590602001918460018302840111600160201b831117156105dc57600080fd5b91908080601f0160208091040260200160405190810160405280939291908181526020018383808284376000920191909152509295949360208101935035915050600160201b81111561062e57600080fd5b82018360208201111561064057600080fd5b803590602001918460018302840111600160201b8311171561066157600080fd5b91908080601f0160208091040260200160405190810160405280939291908181526020018383808284376000920191909152509295505050503515159050612018565b6106c1600480360360208110156106ba57600080fd5b503561251f565b604080516001600160a01b0387168152908101849052811515608082015260a060208083018281528751928401929092528651606084019160c08501919089019080838360005b83811015610720578181015183820152602001610708565b50505050905090810190601f16801561074d5780820380516001836020036101000a031916815260200191505b50838103825285518152855160209182019187019080838360005b83811015610780578181015183820152602001610768565b50505050905090810190601f1680156107ad5780820380516001836020036101000a031916815260200191505b5097505050505050505060405180910390f35b61027d600480360360408110156107d657600080fd5b506001600160a01b038135169060200135612674565b61027d6004803603602081101561080257600080fd5b5035612c69565b6108266004803603602081101561081f57600080fd5b503561342c565b604051808a6001600160a01b03166001600160a01b03168152602001898152602001806020018060200188815260200187815260200180602001861515151581526020018515151515815260200184810384528b818151815260200191508051906020019080838360005b838110156108a9578181015183820152602001610891565b50505050905090810190601f1680156108d65780820380516001836020036101000a031916815260200191505b5084810383528a5181528a516020918201918c019080838360005b838110156109095781810151838201526020016108f1565b50505050905090810190601f1680156109365780820380516001836020036101000a031916815260200191505b50848103825287518152875160209182019189019080838360005b83811015610969578181015183820152602001610951565b50505050905090810190601f1680156109965780820380516001836020036101000a031916815260200191505b509c5050505050505050505050505060405180910390f35b61024461362e565b61024461363d565b61017f61364c565b61017f613652565b61027d600480360360208110156109e457600080fd5b5035613658565b61027d60048036036020811015610a0157600080fd5b5035613a00565b610244613eee565b61027d600480360360a0811015610a2657600080fd5b810190602081018135600160201b811115610a4057600080fd5b820183602082011115610a5257600080fd5b803590602001918460018302840111600160201b83111715610a7357600080fd5b91908080601f0160208091040260200160405190810160405280939291908181526020018383808284376000920191909152509295949360208101935035915050600160201b811115610ac557600080fd5b820183602082011115610ad757600080fd5b803590602001918460018302840111600160201b83111715610af857600080fd5b91908080601f0160208091040260200160405190810160405280939291908181526020018383808284376000920191909152509295949360208101935035915050600160201b811115610b4a57600080fd5b820183602082011115610b5c57600080fd5b803590602001918460018302840111600160201b83111715610b7d57600080fd5b91908080601f0160208091040260200160405190810160405280939291908181526020018383808284376000920191909152509295949360208101935035915050600160201b811115610bcf57600080fd5b820183602082011115610be157600080fd5b803590602001918460018302840111600160201b83111715610c0257600080fd5b91908080601f0160208091040260200160405190810160405280939291908181526020018383808284376000920191909152509295505050503515159050613efd565b610c6260048036036020811015610c5b57600080fd5b50356142ff565b6040518088815260200180602001876001600160a01b03166001600160a01b031681526020018060200180602001806020018615151515815260200185810385528b818151815260200191508051906020019080838360005b83811015610cd3578181015183820152602001610cbb565b50505050905090810190601f168015610d005780820380516001836020036101000a031916815260200191505b5085810384528951815289516020918201918b019080838360005b83811015610d33578181015183820152602001610d1b565b50505050905090810190601f168015610d605780820380516001836020036101000a031916815260200191505b5085810383528851815288516020918201918a019080838360005b83811015610d93578181015183820152602001610d7b565b50505050905090810190601f168015610dc05780820380516001836020036101000a031916815260200191505b50858103825287518152875160209182019189019080838360005b83811015610df3578181015183820152602001610ddb565b50505050905090810190601f168015610e205780820380516001836020036101000a031916815260200191505b509b50505050505050505050505060405180910390f35b600b5481565b600c602090815260009182526040918290208054600180830180548651600293821615610100026000190190911692909204601f810186900486028301860190965285825291949293909290830182828015610eda5780601f10610eaf57610100808354040283529160200191610eda565b820191906000526020600020905b815481529060010190602001808311610ebd57829003601f168201915b50505050600283015460039093015491929160ff16905084565b6003546001600160a01b031681565b610f0b614571565b600c600083815260200190815260200160002060405180608001604052908160008201548152602001600182018054600181600116156101000203166002900480601f016020809104026020016040519081016040528092919081815260200182805460018160011615610100020316600290048015610fcc5780601f10610fa157610100808354040283529160200191610fcc565b820191906000526020600020905b815481529060010190602001808311610faf57829003601f168201915b50505091835250506002820154602082015260039091015460ff1615156040909101526000549091506001600160a01b0316331461100957600080fd5b6001606082018190526000838152600c60209081526040909120835181558184015180518594929361103f93850192019061459b565b50604082015160028201556060909101516003909101805460ff19169115159190911790555050565b6000546001600160a01b031681565b60003360015b60055481116112e35761108e614619565b60008281526006602090815260409182902082516101208101845281546001600160a01b03168152600180830154828501526002808401805487516101009482161594909402600019011691909104601f8101869004860283018601875280835292959394938601939192909183018282801561114c5780601f106111215761010080835404028352916020019161114c565b820191906000526020600020905b81548152906001019060200180831161112f57829003601f168201915b505050918352505060038201805460408051602060026001851615610100026000190190941693909304601f81018490048402820184019092528181529382019392918301828280156111e05780601f106111b5576101008083540402835291602001916111e0565b820191906000526020600020905b8154815290600101906020018083116111c357829003601f168201915b505050505081526020016004820154815260200160058201548152602001600682018054600181600116156101000203166002900480601f0160208091040260200160405190810160405280929190818152602001828054600181600116156101000203166002900480156112965780601f1061126b57610100808354040283529160200191611296565b820191906000526020600020905b81548152906001019060200180831161127957829003601f168201915b50505091835250506007919091015460ff8082161515602084015261010090910416151560409091015280519091506001600160a01b03163314156112da57600193505b5060010161107d565b50816112ee57600080fd5b60408051610180810182526001600160a01b0392831680825260208083019e8f528284019d8e52606083019c8d52608083019b8c5260a083019a8b5260c08301998a5260e083019889526101008084019889529615156101208401908152600061014085018181526101608601828152948252600d90935294909420925183546001600160a01b03191695169490941782559c5160018201559a5160028c0155985160038b0155965160048a01555093516005880155915160068701555160078601555160088501559151600990930180549151945160ff19929092169315159390931761ff0019169315159091029290921762ff000019166201000092151592909202919091179055565b600d6020526000908152604090208054600182015460028301546003840154600485015460058601546006870154600788015460088901546009909901546001600160a01b0390981698969795969495939492939192909160ff80821691610100810482169162010000909104168c565b6000546001600160a01b0316331461148257600080fd5b61148a614619565b60008281526006602090815260409182902082516101208101845281546001600160a01b03168152600180830154828501526002808401805487516101009482161594909402600019011691909104601f810186900486028301860187528083529295939493860193919290918301828280156115485780601f1061151d57610100808354040283529160200191611548565b820191906000526020600020905b81548152906001019060200180831161152b57829003601f168201915b505050918352505060038201805460408051602060026001851615610100026000190190941693909304601f81018490048402820184019092528181529382019392918301828280156115dc5780601f106115b1576101008083540402835291602001916115dc565b820191906000526020600020905b8154815290600101906020018083116115bf57829003601f168201915b505050505081526020016004820154815260200160058201548152602001600682018054600181600116156101000203166002900480601f0160208091040260200160405190810160405280929190818152602001828054600181600116156101000203166002900480156116925780601f1061166757610100808354040283529160200191611692565b820191906000526020600020905b81548152906001019060200180831161167557829003601f168201915b50505091835250506007919091015460ff8082161515602084015261010090910416151560409091015260e0810151909150806116ce57600080fd5b60016101008301819052600084815260066020908152604091829020855181546001600160a01b0319166001600160a01b03909116178155818601519381019390935590840151805185939261172b92600285019291019061459b565b506060820151805161174791600384019160209091019061459b565b506080820151600482015560a0820151600582015560c0820151805161177791600684019160209091019061459b565b5060e082015160079190910180546101009384015160ff199091169215159290921761ff001916911515909202179055505050565b6000546001600160a01b0316331480156117c857506000600754115b6117d157600080fd5b6117d9614672565b600082815260086020908152604091829020825160a08101845281546001600160a01b03168152600180830180548651600261010094831615949094026000190190911692909204601f81018690048602830186019096528582529194929385810193919291908301828280156118915780601f1061186657610100808354040283529160200191611891565b820191906000526020600020905b81548152906001019060200180831161187457829003601f168201915b505050918352505060028281015460208084019190915260038401805460408051601f600019610100600186161502019093169590950491820184900484028501840181528185529094019390918301828280156119305780601f1061190557610100808354040283529160200191611930565b820191906000526020600020905b81548152906001019060200180831161191357829003601f168201915b50505091835250506004919091015460ff16151560209182015260016080830181905260008581526008835260409020835181546001600160a01b0319166001600160a01b03909116178155838301518051949550859491936119989385019291019061459b565b5060408201516002820155606082015180516119be91600384019160209091019061459b565b50608091909101516004909101805460ff1916911515919091179055604081015160011415611a0d578051600180546001600160a01b0319166001600160a01b03909216919091179055611aa2565b806040015160021415611a40578051600280546001600160a01b0319166001600160a01b03909216919091179055611aa2565b806040015160031415611a73578051600380546001600160a01b0319166001600160a01b03909216919091179055611aa2565b806040015160041415611aa2578051600480546001600160a01b0319166001600160a01b039092169190911790555b5050565b60055481565b6001805b6005548111611d1657611ac1614619565b60008281526006602090815260409182902082516101208101845281546001600160a01b03168152600180830154828501526002808401805487516101009482161594909402600019011691909104601f81018690048602830186018752808352929593949386019391929091830182828015611b7f5780601f10611b5457610100808354040283529160200191611b7f565b820191906000526020600020905b815481529060010190602001808311611b6257829003601f168201915b505050918352505060038201805460408051602060026001851615610100026000190190941693909304601f8101849004840282018401909252818152938201939291830182828015611c135780601f10611be857610100808354040283529160200191611c13565b820191906000526020600020905b815481529060010190602001808311611bf657829003601f168201915b505050505081526020016004820154815260200160058201548152602001600682018054600181600116156101000203166002900480601f016020809104026020016040519081016040528092919081815260200182805460018160011615610100020316600290048015611cc95780601f10611c9e57610100808354040283529160200191611cc9565b820191906000526020600020905b815481529060010190602001808311611cac57829003601f168201915b50505091835250506007919091015460ff8082161515602084015261010090910416151560409091015280519091506001600160a01b0316331415611d0d57600092505b50600101611ab0565b5080611d2157600080fd5b6000546001600160a01b0316331415611d3957600080fd5b6005600081548092919060010191905055506000339050604051806101200160405280826001600160a01b0316815260200160055481526020018981526020018a8152602001888152602001878152602001868152602001851515815260200184151581525060066000600554815260200190815260200160002060008201518160000160006101000a8154816001600160a01b0302191690836001600160a01b03160217905550602082015181600101556040820151816002019080519060200190611e0792919061459b565b5060608201518051611e2391600384019160209091019061459b565b506080820151600482015560a0820151600582015560c08201518051611e5391600684019160209091019061459b565b5060e08201518160070160006101000a81548160ff0219169083151502179055506101008201518160070160016101000a81548160ff021916908315150217905550905050604051806101800160405280826001600160a01b03168152602001600081526020016000815260200160008152602001600081526020016000815260200160008152602001600081526020016000815260200160001515815260200160001515815260200160001515815250600d6000836001600160a01b03166001600160a01b0316815260200190815260200160002060008201518160000160006101000a8154816001600160a01b0302191690836001600160a01b031602179055506020820151816001015560408201518160020155606082015181600301556080820151816004015560a0820151816005015560c0820151816006015560e0820151816007015561010082015181600801556101208201518160090160006101000a81548160ff0219169083151502179055506101408201518160090160016101000a81548160ff0219169083151502179055506101608201518160090160026101000a81548160ff021916908315150217905550905050505050505050505050565b6001805b60055481116122825761202d614619565b60008281526006602090815260409182902082516101208101845281546001600160a01b03168152600180830154828501526002808401805487516101009482161594909402600019011691909104601f810186900486028301860187528083529295939493860193919290918301828280156120eb5780601f106120c0576101008083540402835291602001916120eb565b820191906000526020600020905b8154815290600101906020018083116120ce57829003601f168201915b505050918352505060038201805460408051602060026001851615610100026000190190941693909304601f810184900484028201840190925281815293820193929183018282801561217f5780601f106121545761010080835404028352916020019161217f565b820191906000526020600020905b81548152906001019060200180831161216257829003601f168201915b505050505081526020016004820154815260200160058201548152602001600682018054600181600116156101000203166002900480601f0160208091040260200160405190810160405280929190818152602001828054600181600116156101000203166002900480156122355780601f1061220a57610100808354040283529160200191612235565b820191906000526020600020905b81548152906001019060200180831161221857829003601f168201915b50505091835250506007919091015460ff8082161515602084015261010090910416151560409091015280519091506001600160a01b031633141561227957600092505b5060010161201c565b508061228d57600080fd5b6001805b6007548111612436576122a2614672565b600082815260086020908152604091829020825160a08101845281546001600160a01b03168152600180830180548651600261010094831615949094026000190190911692909204601f810186900486028301860190965285825291949293858101939192919083018282801561235a5780601f1061232f5761010080835404028352916020019161235a565b820191906000526020600020905b81548152906001019060200180831161233d57829003601f168201915b505050918352505060028281015460208084019190915260038401805460408051601f600019610100600186161502019093169590950491820184900484028501840181528185529094019390918301828280156123f95780601f106123ce576101008083540402835291602001916123f9565b820191906000526020600020905b8154815290600101906020018083116123dc57829003601f168201915b50505091835250506004919091015460ff16151560209091015280519091506001600160a01b031633141561242d57600092505b50600101612291565b508061244157600080fd5b600486111580156124525750600086115b61245b57600080fd5b600780546001908101918290556040805160a0810182523380825260208083018a81528385018d9052606084018c9052891515608085015260009687526008825293909520825181546001600160a01b0319166001600160a01b0390911617815592518051919592946124d4939085019291019061459b565b5060408201516002820155606082015180516124fa91600384019160209091019061459b565b50608091909101516004909101805460ff191691151591909117905550505050505050565b6008602090815260009182526040918290208054600180830180548651600261010094831615949094026000190190911692909204601f81018690048602830186019096528582526001600160a01b039092169492939092908301828280156125c95780601f1061259e576101008083540402835291602001916125c9565b820191906000526020600020905b8154815290600101906020018083116125ac57829003601f168201915b505050506002838101546003850180546040805160206001841615610100026000190190931695909504601f8101839004830286018301909152808552959692959294509091908301828280156126615780601f1061263657610100808354040283529160200191612661565b820191906000526020600020905b81548152906001019060200180831161264457829003601f168201915b5050506004909301549192505060ff1685565b61267c614619565b60008281526006602090815260409182902082516101208101845281546001600160a01b03168152600180830154828501526002808401805487516101009482161594909402600019011691909104601f8101869004860283018601875280835292959394938601939192909183018282801561273a5780601f1061270f5761010080835404028352916020019161273a565b820191906000526020600020905b81548152906001019060200180831161271d57829003601f168201915b505050918352505060038201805460408051602060026001851615610100026000190190941693909304601f81018490048402820184019092528181529382019392918301828280156127ce5780601f106127a3576101008083540402835291602001916127ce565b820191906000526020600020905b8154815290600101906020018083116127b157829003601f168201915b505050505081526020016004820154815260200160058201548152602001600682018054600181600116156101000203166002900480601f0160208091040260200160405190810160405280929190818152602001828054600181600116156101000203166002900480156128845780601f1061285957610100808354040283529160200191612884565b820191906000526020600020905b81548152906001019060200180831161286757829003601f168201915b50505091835250506007919091015460ff8082161515602080850191909152610100909204161515604092830152815190810190915260008082529192509060015b6009548111612bbe576128d76146ac565b600a60008381526020019081526020016000206040518060e001604052908160008201548152602001600182018054600181600116156101000203166002900480601f0160208091040260200160405190810160405280929190818152602001828054600181600116156101000203166002900480156129985780601f1061296d57610100808354040283529160200191612998565b820191906000526020600020905b81548152906001019060200180831161297b57829003601f168201915b50505091835250506002828101546001600160a01b031660208084019190915260038401805460408051601f60001960018516156101000201909316959095049182018490048402850184018152818552909401939091830182828015612a405780601f10612a1557610100808354040283529160200191612a40565b820191906000526020600020905b815481529060010190602001808311612a2357829003601f168201915b505050918352505060048201805460408051602060026001851615610100026000190190941693909304601f8101849004840282018401909252818152938201939291830182828015612ad45780601f10612aa957610100808354040283529160200191612ad4565b820191906000526020600020905b815481529060010190602001808311612ab757829003601f168201915b505050918352505060058201805460408051602060026001851615610100026000190190941693909304601f8101849004840282018401909252818152938201939291830182828015612b685780601f10612b3d57610100808354040283529160200191612b68565b820191906000526020600020905b815481529060010190602001808311612b4b57829003601f168201915b50505091835250506006919091015460ff16151560209091015260408101519091506001600160a01b0316331415612bb55760c0810151151560011415612bb55760019250806020015193505b506001016128c6565b5080612bc957600080fd5b825133906001600160a01b03878116911614612be457600080fd5b600b80546001908101918290556040805160808101825283815260208082018881528284018b9052600060608401819052958652600c825292909420815181559151805191949293612c3c939085019291019061459b565b50604082015160028201556060909101516003909101805460ff1916911515919091179055505050505050565b6000546001600160a01b0316331480612c8c57506001546001600160a01b031633145b80612ca157506002546001600160a01b031633145b80612cb657506003546001600160a01b031633145b80612ccb57506004546001600160a01b031633145b612cd457600080fd5b612cdc614619565b60008281526006602090815260409182902082516101208101845281546001600160a01b03168152600180830154828501526002808401805487516101009482161594909402600019011691909104601f81018690048602830186018752808352929593949386019391929091830182828015612d9a5780601f10612d6f57610100808354040283529160200191612d9a565b820191906000526020600020905b815481529060010190602001808311612d7d57829003601f168201915b505050918352505060038201805460408051602060026001851615610100026000190190941693909304601f8101849004840282018401909252818152938201939291830182828015612e2e5780601f10612e0357610100808354040283529160200191612e2e565b820191906000526020600020905b815481529060010190602001808311612e1157829003601f168201915b505050505081526020016004820154815260200160058201548152602001600682018054600181600116156101000203166002900480601f016020809104026020016040519081016040528092919081815260200182805460018160011615610100020316600290048015612ee45780601f10612eb957610100808354040283529160200191612ee4565b820191906000526020600020905b815481529060010190602001808311612ec757829003601f168201915b50505091835250506007919091015460ff808216151560208401526101009091041615156040909101528051909150612f1b6146f4565b506001600160a01b038181166000908152600d6020908152604091829020825161018081018452815485168152600180830154938201939093526002820154938101939093526003810154606084015260048101546080840152600581015460a0840152600681015460c0840152600781015460e084015260088101546101008085019190915260099091015460ff80821615156101208601529181048216151561014085015262010000900416151561016083015254909116331480612fec57506002546001600160a01b031633145b8061300157506003546001600160a01b031633145b8061301657506004546001600160a01b031633145b156132095760e08301511580156130305750610140810151155b1561311257600160e08401819052600085815260066020908152604091829020865181546001600160a01b0319166001600160a01b03909116178155818701519381019390935590850151805186939261309192600285019291019061459b565b50606082015180516130ad91600384019160209091019061459b565b506080820151600482015560a0820151600582015560c082015180516130dd91600684019160209091019061459b565b5060e082015160079190910180546101009384015160ff199091169215159290921761ff001916911515909202179055613204565b60e08301511515600114801561312b5750610140810151155b1561320457600161014082018181526001600160a01b038481166000908152600d6020908152604091829020865181546001600160a01b031916941693909317835585015193820193909355918301516002830155606083015160038301556080830151600483015560a0830151600583015560c0830151600683015560e0830151600783015561010080840151600884015561012084015160099093018054925161016086015160ff199094169415159490941761ff0019169315159091029290921762ff0000191662010000911515919091021790555b613426565b6000546001600160a01b0316331415613426578260e0015180156132305750610100830151155b801561323f5750610160810151155b156133225760016101008401819052600085815260066020908152604091829020865181546001600160a01b0319166001600160a01b0390911617815581870151938101939093559085015180518693926132a192600285019291019061459b565b50606082015180516132bd91600384019160209091019061459b565b506080820151600482015560a0820151600582015560c082015180516132ed91600684019160209091019061459b565b5060e082015160079190910180546101009384015160ff199091169215159290921761ff001916911515909202179055613426565b826101000151801561333b575061010083015115156001145b801561334a5750610160810151155b1561342657600161016082018181526001600160a01b038481166000908152600d6020908152604091829020865181546001600160a01b031916941693909317835585015193820193909355918301516002830155606083015160038301556080830151600483015560a0830151600583015560c0830151600683015560e0830151600783015561010080840151600884015561012084015160099093018054610140860151935160ff199091169415159490941761ff0019169215159091029190911762ff0000191662010000921515929092029190911790555b50505050565b60066020908152600091825260409182902080546001808301546002808501805488516101009582161595909502600019011691909104601f81018790048702840187019097528683526001600160a01b039093169590949192918301828280156134d85780601f106134ad576101008083540402835291602001916134d8565b820191906000526020600020905b8154815290600101906020018083116134bb57829003601f168201915b5050505060038301805460408051602060026001851615610100026000190190941693909304601f81018490048402820184019092528181529495949350908301828280156135685780601f1061353d57610100808354040283529160200191613568565b820191906000526020600020905b81548152906001019060200180831161354b57829003601f168201915b505050505090806004015490806005015490806006018054600181600116156101000203166002900480601f0160208091040260200160405190810160405280929190818152602001828054600181600116156101000203166002900480156136125780601f106135e757610100808354040283529160200191613612565b820191906000526020600020905b8154815290600101906020018083116135f557829003601f168201915b5050506007909301549192505060ff8082169161010090041689565b6002546001600160a01b031681565b6004546001600160a01b031681565b60075481565b60095481565b6000546001600160a01b03163314801561367457506000600954115b61367d57600080fd5b6136856146ac565b600a60008381526020019081526020016000206040518060e001604052908160008201548152602001600182018054600181600116156101000203166002900480601f0160208091040260200160405190810160405280929190818152602001828054600181600116156101000203166002900480156137465780601f1061371b57610100808354040283529160200191613746565b820191906000526020600020905b81548152906001019060200180831161372957829003601f168201915b50505091835250506002828101546001600160a01b031660208084019190915260038401805460408051601f600019600185161561010002019093169590950491820184900484028501840181528185529094019390918301828280156137ee5780601f106137c3576101008083540402835291602001916137ee565b820191906000526020600020905b8154815290600101906020018083116137d157829003601f168201915b505050918352505060048201805460408051602060026001851615610100026000190190941693909304601f81018490048402820184019092528181529382019392918301828280156138825780601f1061385757610100808354040283529160200191613882565b820191906000526020600020905b81548152906001019060200180831161386557829003601f168201915b505050918352505060058201805460408051602060026001851615610100026000190190941693909304601f81018490048402820184019092528181529382019392918301828280156139165780601f106138eb57610100808354040283529160200191613916565b820191906000526020600020905b8154815290600101906020018083116138f957829003601f168201915b50505091835250506006919091015460ff161515602091820152600160c083018190526000858152600a83526040902083518155838301518051949550859491936139669385019291019061459b565b5060408201516002820180546001600160a01b0319166001600160a01b03909216919091179055606082015180516139a891600384019160209091019061459b565b50608082015180516139c491600484019160209091019061459b565b5060a082015180516139e091600584019160209091019061459b565b5060c091909101516006909101805460ff19169115159190911790555050565b60015433906001600160a01b0316811480613a2857506002546001600160a01b038281169116145b80613a4057506003546001600160a01b038281169116145b80613a5857506004546001600160a01b038281169116145b613a6157600080fd5b613a69614619565b60008381526006602090815260409182902082516101208101845281546001600160a01b03168152600180830154828501526002808401805487516101009482161594909402600019011691909104601f81018690048602830186018752808352929593949386019391929091830182828015613b275780601f10613afc57610100808354040283529160200191613b27565b820191906000526020600020905b815481529060010190602001808311613b0a57829003601f168201915b505050918352505060038201805460408051602060026001851615610100026000190190941693909304601f8101849004840282018401909252818152938201939291830182828015613bbb5780601f10613b9057610100808354040283529160200191613bbb565b820191906000526020600020905b815481529060010190602001808311613b9e57829003601f168201915b505050505081526020016004820154815260200160058201548152602001600682018054600181600116156101000203166002900480601f016020809104026020016040519081016040528092919081815260200182805460018160011615610100020316600290048015613c715780601f10613c4657610100808354040283529160200191613c71565b820191906000526020600020905b815481529060010190602001808311613c5457829003601f168201915b50505091835250506007919091015460ff80821615156020840152610100909104161515604090910152805192509050613ca96146f4565b506001600160a01b038083166000908152600d602090815260409182902082516101808101845281549094168452600181015491840191909152600281015491830191909152600381015460608301526004810154608080840191909152600582015460a0840152600682015460c0840152600782015460e084015260088201546101008085019190915260099092015460ff808216158015610120870152938204811615156101408601526201000090910416151561016084015283015190613d7257600080fd5b806001148015613d8f57506001546001600160a01b038581169116145b15613d9c57600160e08401525b806002148015613db957506002546001600160a01b038581169116145b15613dc657600160e08401525b806003148015613de357506003546001600160a01b038581169116145b15613df057600160e08401525b806004148015613e0d57506004546001600160a01b038581169116145b15613e1a57600160e08401525b600085815260066020908152604091829020855181546001600160a01b0319166001600160a01b03909116178155858201516001820155918501518051869392613e6b92600285019291019061459b565b5060608201518051613e8791600384019160209091019061459b565b506080820151600482015560a0820151600582015560c08201518051613eb791600684019160209091019061459b565b5060e082015160079190910180546101009384015160ff199091169215159290921761ff0019169115159092021790555050505050565b6001546001600160a01b031681565b6001805b60095481116141e357613f126146ac565b600a60008381526020019081526020016000206040518060e001604052908160008201548152602001600182018054600181600116156101000203166002900480601f016020809104026020016040519081016040528092919081815260200182805460018160011615610100020316600290048015613fd35780601f10613fa857610100808354040283529160200191613fd3565b820191906000526020600020905b815481529060010190602001808311613fb657829003601f168201915b50505091835250506002828101546001600160a01b031660208084019190915260038401805460408051601f6000196001851615610100020190931695909504918201849004840285018401815281855290940193909183018282801561407b5780601f106140505761010080835404028352916020019161407b565b820191906000526020600020905b81548152906001019060200180831161405e57829003601f168201915b505050918352505060048201805460408051602060026001851615610100026000190190941693909304601f810184900484028201840190925281815293820193929183018282801561410f5780601f106140e45761010080835404028352916020019161410f565b820191906000526020600020905b8154815290600101906020018083116140f257829003601f168201915b505050918352505060058201805460408051602060026001851615610100026000190190941693909304601f81018490048402820184019092528181529382019392918301828280156141a35780601f10614178576101008083540402835291602001916141a3565b820191906000526020600020905b81548152906001019060200180831161418657829003601f168201915b50505091835250506006919091015460ff16151560209091015260408101519091506001600160a01b03163314156141da57600092505b50600101613f01565b50806141ee57600080fd5b600980546001908101918290556040805160e08101825283815260208082018b815233838501819052606084018c9052608084018b905260a084018a905288151560c08501526000968752600a835293909520825181559451805193959294929361426093850192919091019061459b565b5060408201516002820180546001600160a01b0319166001600160a01b03909216919091179055606082015180516142a291600384019160209091019061459b565b50608082015180516142be91600484019160209091019061459b565b5060a082015180516142da91600584019160209091019061459b565b5060c091909101516006909101805460ff191691151591909117905550505050505050565b600a602090815260009182526040918290208054600180830180548651600293821615610100026000190190911692909204601f81018690048602830186019096528582529194929390929083018282801561439c5780601f106143715761010080835404028352916020019161439c565b820191906000526020600020905b81548152906001019060200180831161437f57829003601f168201915b505050506002838101546003850180546040805160206101006001851615026000190190931695909504601f810183900483028601830190915280855295966001600160a01b039093169592945090919083018282801561443e5780601f106144135761010080835404028352916020019161443e565b820191906000526020600020905b81548152906001019060200180831161442157829003601f168201915b5050505060048301805460408051602060026001851615610100026000190190941693909304601f81018490048402820184019092528181529495949350908301828280156144ce5780601f106144a3576101008083540402835291602001916144ce565b820191906000526020600020905b8154815290600101906020018083116144b157829003601f168201915b5050505060058301805460408051602060026001851615610100026000190190941693909304601f810184900484028201840190925281815294959493509083018282801561455e5780601f106145335761010080835404028352916020019161455e565b820191906000526020600020905b81548152906001019060200180831161454157829003601f168201915b5050506006909301549192505060ff1687565b60405180608001604052806000815260200160608152602001600081526020016000151581525090565b828054600181600116156101000203166002900490600052602060002090601f016020900481019282601f106145dc57805160ff1916838001178555614609565b82800160010185558215614609579182015b828111156146095782518255916020019190600101906145ee565b50614615929150614764565b5090565b60405180610120016040528060006001600160a01b031681526020016000815260200160608152602001606081526020016000815260200160008152602001606081526020016000151581526020016000151581525090565b6040518060a0016040528060006001600160a01b031681526020016060815260200160008152602001606081526020016000151581525090565b6040518060e00160405280600081526020016060815260200160006001600160a01b031681526020016060815260200160608152602001606081526020016000151581525090565b60405180610180016040528060006001600160a01b0316815260200160008152602001600081526020016000815260200160008152602001600081526020016000815260200160008152602001600081526020016000151581526020016000151581526020016000151581525090565b61477e91905b80821115614615576000815560010161476a565b9056fea265627a7a72315820b7a29c5c563f7eccc0d985c34e351776665cdaf6b9cb21ddb04a1865217373e664736f6c63430005100032",
  "source": "pragma solidity ^0.5.0;\n\ncontract UniversityDegreeChain{\n\t\n\taddress public Director;\n\taddress public CSE_Hod;\n\taddress public MECH_Hod;\n\taddress public CIVIL_Hod;\n\taddress public EE_Hod;\n //Assigning the address of account who is deploying smart contract on the n/w to the Director.\t\n\tconstructor() public {\n\t        Director = msg.sender;\n      \t}\n      \t\n      /*\t\n      \tevent addstudent(\n      \taddress account,\n      \tuint Roll_no,\n      \tstring name,\n      \tuint depart,\n      \tuint program,\n      \tstring doj,\n      \tbool HODVerified,\n      \tbool DirectorVerified\n      \t);\n*/\n\n// Model a Student\n\tstruct Student {\n        \taddress account; // blockchain address\n        \tuint Enroll_no;\n        \tstring Roll_no; //student roll no\n        \tstring name; //student name\n        \tuint depart; // 1 = CSE, 2 = MECH, 3= CIVIL, 4= EE\n        \tuint program; // 1 = BTECH, 2 = MTECH\n        \tstring doj; //Date of Joining\n        //\tstring photoHash; //Hash value of photo stored on IPFS Network\n        \tbool HODVerified; //Flag status for Verification by HOD\n        \tbool DirectorVerified;\t//Flag status for Verification by Director\n        \t\n    \t}\n    \t\n    \t\n// Semester details of Student\n    \tstruct SemesterDetail {\n    \t\t\n    \t\taddress account;\n    \t\t//uint Roll_no;\n    \t\tuint semester1;\n    \t\tuint semester2;\n    \t\tuint semester3;\n    \t\tuint semester4;\n    \t\tuint semester5;\n    \t\tuint semester6;\n    \t\tuint semester7;\n    \t\tuint semester8;\n        \tbool active_backlog; \n        \tbool isHodVerified;\n        \tbool isDirVerified;\t\n    \t\n    \t}\n    \n\n// Model a HOD\n\tstruct HOD {\n        \taddress account;  // blockchain address\n        \tstring unqID;\n        \tuint depart; // 1 = CSE, 2 = MECH, 3= CIVIL, 4= EE\n        \tstring name;\n        \tbool isHod;\n    \t}\n    \t\n\n// Model a Company\n\tstruct Company {\n        \tuint CRN_No; //Company Registration Number\n        \tstring Cname; //company name\n        \taddress account; //Blockchain account address\n        \tstring YoE; //Year of Estalblishment\n        \tstring DoW; //Domain of Work\n        \tstring location;\n        \tbool DirectorApproved; //Flag status of approval by director\n    \t}\n\n// Companies Request   \t\n    \tstruct CompanyRequest {\n    \t\tuint req_id;\n    \t\tstring company_name;\n    \t\tuint student_roll_no;\n    \t\tbool isReqApproved;\t\n    \t\n    \t}\n    \t\n//  \t\n    \t\n    \tuint public StudEnrollNo = 0;\n    \tmapping(uint => Student) public Students;\n    \t\n    \tuint public HodAddressCount = 0;\n    \tmapping(uint => HOD) public HODs;\n    \t\n    \tuint public CompRegNo = 0;\n    \tmapping(uint => Company) public Companies;\n    \t\n    \tuint public requestId = 0;\n    \tmapping(uint => CompanyRequest) public CompaniesRequest;\n    \t\n    \tmapping(address => SemesterDetail) public SemesterDetails;\n    \t\n\tfunction addStudent(string memory _name,string memory _StudRollNo, uint _depart, uint _program, string memory _doj, bool _HODVerified, bool _DirectorVerified) public {\n\t\t\n\t\t\n\t\tbool _flag = true;\n\t\tfor(uint i=1; i<=StudEnrollNo; i++){\n\t\t\tStudent memory _Student = Students[i];\n\t\t\tif(msg.sender == _Student.account)\n\t\t\t{_flag = false;}\n\t\t\n\t\t}\n//Ensuring that address doesn't belong to some other student or Same student with same address may not be able to fill the form \n\t\t\n\t\trequire(_flag);\n\t\trequire(msg.sender!= Director);\n\t\t\n\t\t\n\t\t\n    \t\tStudEnrollNo ++;\n    \t\taddress _account = msg.sender;\n    \t\tStudents[StudEnrollNo] = Student(_account,StudEnrollNo , _StudRollNo, _name, _depart, _program, _doj, _HODVerified, _DirectorVerified);\n    \t\t\n    \t\tSemesterDetails[_account] = SemesterDetail(_account, 0, 0, 0, 0, 0, 0, 0, 0, false, false, false);\n    \t\t/*emit addstudent(_account, StudRollNo, _name, _depart, _program, _doj, _HODVerified, _DirectorVerified); */\n  \t}\n  \t\n  \tfunction addHOD(uint _depart,string memory _name, string memory _unqID, bool _isHod) public {\n    \t\t\n    \t\t//require(msg.sender == Director);\n    \t\t\n    \t\tbool _Student_flag = true;\n\t\tfor(uint i=1; i<=StudEnrollNo; i++){\n\t\t\tStudent memory _student = Students[i];\n\t\t\tif(msg.sender == _student.account)\n\t\t\t{_Student_flag = false;}\n\t\t}\n\t\t\n\t\trequire(_Student_flag);\n    \t\t\n    \t\tbool _flag = true;\n\t\tfor(uint i=1; i<=HodAddressCount; i++){\n\t\t\tHOD memory _HOD = HODs[i];\n\t\t\tif(msg.sender == _HOD.account)\n\t\t\t{_flag = false;}\n\t\t}\n//Ensuring that address doesn't belong to some other HOD or Same HOD with same address may not be able to fill the form\n    \t\trequire(_flag);\n    \t\trequire(_depart<=4 && _depart>0);\n    \t\t\n    \t\t\n    \t\tHodAddressCount++;\n    \t\taddress _account = msg.sender;\n    \t\tHODs[HodAddressCount] = HOD(_account,_unqID,_depart, _name, _isHod);\n\n  \t}\n\t\n\tfunction addCompany(string memory _Cname, string memory _YoE, string memory _DoW,string memory _location, bool _DirectorApproved) \t\tpublic {\n\t\t\n\t\tbool _flag = true;\n\t\tfor(uint i=1; i<=CompRegNo; i++){\n\t\t\tCompany memory _Company = Companies[i];\n\t\t\tif(msg.sender == _Company.account)\n\t\t\t{_flag = false;}\n\t\t}\n    \t\trequire(_flag);\n    \t\t\n    \t\tCompRegNo ++;\n    \t\taddress _account = msg.sender;\n    \t\tCompanies[CompRegNo] = Company(CompRegNo,_Cname, _account, _YoE, _DoW, _location, _DirectorApproved);\n\n  \t}  \n  \t\n  \t\n  \t// Verify and assign HODs \n  \tfunction Verify_HOD(uint _id) public {\n  \t\n\t  \trequire(msg.sender == Director && HodAddressCount>0);\n\t  \t\n\t  \tHOD memory _hod = HODs[_id];\n\t  \t_hod.isHod = true;\n\t  \tHODs[_id] = _hod;\n\t  \t\n\t  \tif(_hod.depart == 1)\n\t  \t{\n\t  \t    CSE_Hod = _hod.account;\n\t  \t}\n\t  \t\n\t  \telse if(_hod.depart == 2)\n\t  \t{\n\t  \t    MECH_Hod = _hod.account;\n\t  \t}\n\t  \telse if(_hod.depart == 3)\n\t  \t{\n\t  \t    CIVIL_Hod = _hod.account;\n\t  \t}\n\t  \telse if(_hod.depart == 4)\n\t  \t{\n\t  \t    EE_Hod = _hod.account;\n\t  \t}\n  \t\n  \t}\n  \t\n  \t\n  \t// Companies registration in college\n  \tfunction Approve_Company(uint _id) public {\n  \t\n  \t\n\t  \trequire(msg.sender == Director && CompRegNo>0);\n\t  \t\n\t  \tCompany memory _company = Companies[_id];\n\t  \t_company.DirectorApproved = true;\n\t  \tCompanies[_id] = _company;\n  \t\n  \t\n  \t}\n  \t\n//***********************************************************************************************************************  \t\n  \t// Companies request for student\n  \tfunction Company_RequestforStudent(address _Saccount, uint _SrollNo) public\n  \t{\n  \t\n  \t\tStudent memory _student = Students[_SrollNo];\n  \t\tstring memory _ComapanyName =\"\";\n  \t\tbool _flag = false;\n\t\tfor(uint i=1; i<=CompRegNo; i++){\n\t\t\tCompany memory _Company = Companies[i];\n\t\t\tif(msg.sender == _Company.account){\n\t\t\t\tif(_Company.DirectorApproved == true)\n\t\t\t\t{\n\t\t\t\t\t_flag = true;\n\t\t\t\t\t_ComapanyName = _Company.Cname;\n\t\t\t\t}\n\t\t\t}\n\t\t}\n    \t\trequire(_flag);\n  \t\t\n  \t\taddress _account = msg.sender;\n  \t\t\n  \t\t//Ensuring Account Address and Roll No sent by Company matches with existing student's corrosponding roll no.\n  \t\trequire(_student.account == _Saccount);\n  \t\t\n  \t\t\n  \t\trequestId++;\n  \t\tCompaniesRequest[requestId] = CompanyRequest(requestId, _ComapanyName, _SrollNo , false);\t\t\t\n  \t}\n//**********************************************************************************************************************  \t\n  \t\n  \t// Director approval for companies request for student\nfunction Approve_CompanyRequest(uint _req_id) public\n  \t{\n  \t\tCompanyRequest memory _company = CompaniesRequest[_req_id];\n  \t\t\n  \t\trequire(msg.sender == Director);\n  \t\t_company.isReqApproved = true;\n  \t\t\n  \t\tCompaniesRequest[_req_id] = _company;\t\n  \t\n  \t}\n\n  \t\n  \t\n  \t// Update student semester details\n  \t\n \tfunction Update_SemesterGrades(uint _sem1, uint _sem2, uint _sem3, uint _sem4, uint _sem5, uint _sem6,uint _sem7, uint _sem8, bool _backlog ) public\n  \t{\n  \t\tbool flag = false;\n  \t\taddress _account = msg.sender;\n  \t\t//Student memory _student = Students[_id];\n  \t\tfor(uint i=1; i<=StudEnrollNo; i++){\n\t\t\tStudent memory _Student = Students[i];\n\t\t\tif(msg.sender == _Student.account)\n\t\t\t{flag = true;}\n\t\t\n\t\t}\n  \t\t\n  \t\trequire(flag);\n  \t\t\n  \t\t\n  \t\tSemesterDetails[_account] = SemesterDetail(_account, _sem1, _sem2, _sem3, _sem4, _sem5, _sem6, _sem7, _sem8, _backlog, false,false);\t\n  \t\t\n  \t}\n\t\n\t\n\t// Verification of Students by their respective HODs\n\tfunction VerificationByHODs(uint _id) public\n\t{\n\t\t\n\t\taddress _account = msg.sender;\n\t\trequire(_account == CSE_Hod || _account == MECH_Hod || _account == CIVIL_Hod || _account == EE_Hod);\n\t\t\n\t\tStudent memory _student = Students[_id];\n\t\t_account = _student.account;\n\t\tSemesterDetail memory _student_detail = SemesterDetails[_account];\n  \t\tuint dept = _student.depart;\n  \t\trequire(_student_detail.active_backlog == false);\n  \t\t\n  \t\tif(dept == 1 && _account == CSE_Hod)\n  \t\t{\n  \t\t\t_student.HODVerified = true;\n  \t\t\t\n  \t\t}\n  \t\t\n  \t\tif(dept == 2 && _account == MECH_Hod)\n  \t\t{\n  \t\t\t_student.HODVerified = true;\n  \t\t\t\n  \t\t}\n  \t\t\n  \t\tif(dept == 3 && _account == CIVIL_Hod)\n  \t\t{\n  \t\t\t_student.HODVerified = true;\n  \t\t\t\n  \t\t}\n  \t\t\n  \t\tif(dept == 4 && _account == EE_Hod)\n  \t\t{\n  \t\t\t_student.HODVerified = true;\n  \t\t\t\n  \t\t}\n  \t\t\t\t\n\t\tStudents[_id]= _student;\n\t\n\t}\n\t\n\t// Verification of students by Director\n\tfunction Student_VerificationByDirector(uint _id) public\n\t{\n\t\trequire(msg.sender == Director);\n\t\t\n\t\tStudent memory _student = Students[_id];\n\t\tbool isHODverified = _student.HODVerified;\n\t\t\n\t\trequire(isHODverified);\n\t\n\t\t_student.DirectorVerified = true;\n\t\t\n\t\tStudents[_id]= _student;\n\t\n\t}\n\t\n\t\n\t//Abhishek's Function\n\tfunction All_Data_Verification(uint _id) public\n\t{\n\t\n\t\trequire(msg.sender == Director || msg.sender == CSE_Hod || msg.sender == MECH_Hod || msg.sender == CIVIL_Hod || msg.sender == EE_Hod);\n\t\tStudent memory _student = Students[_id];\n\t\taddress _account = _student.account;\n\t\tSemesterDetail memory _student_detail = SemesterDetails[_account];\n\t\t\n\t\t\n\t\tif(msg.sender == CSE_Hod || msg.sender == MECH_Hod || msg.sender == CIVIL_Hod || msg.sender == EE_Hod)\n\t\t{\n\t\t\tif(_student.HODVerified == false && _student_detail.isHodVerified == false)\n\t\t\t{\n\t\t\t\n\t\t\t\t_student.HODVerified = true;\n\t\t\t\tStudents[_id] = _student;\n\t\t\t\n\t\t\t}\n\t\t\t\n\t\t\telse if(_student.HODVerified == true && _student_detail.isHodVerified == false)\n\t\t\t{\n\t\t\t\n\t\t\t\t_student_detail.isHodVerified = true;\n\t\t\t\tSemesterDetails[_account] = _student_detail;\n\t\t\t\n\t\t\t}\n\t\t\n\t\t\n\t\t\n\t\t}\n\t\t\n\t\telse if(msg.sender == Director)\n\t\t{\n\t\t\tif(_student.HODVerified && _student.DirectorVerified == false && _student_detail.isDirVerified == false)\n\t\t\t{\n\t\t\t\n\t\t\t\t_student.DirectorVerified = true;\n\t\t\t\tStudents[_id] = _student;\n\t\t\t\n\t\t\t}\n\t\t\t\n\t\t\telse if(_student.DirectorVerified && _student.DirectorVerified == true && _student_detail.isDirVerified == false)\n\t\t\t\n\t\t\t{\n\t\t\t\t_student_detail.isDirVerified = true;\n\t\t\t\tSemesterDetails[_account] = _student_detail;\n\t\t\n\t\t\t\n\t\t\t}\n\t\t\t\t\t\n\t\t\n\t\t}\t\n\t\n\t\n\t}\n\t\n\t\n}\n",
  "sourcePath": "/home/abhishek/Desktop/Project_Simlulation/Project/UniversityDegreeChain/contracts/UniversityDegreeChain.sol",
  "compiler": {
    "name": "solc",
    "version": "0.5.16+commit.9c3226ce.Emscripten.clang"
  },
  "schemaVersion": "3.4.3",
  "updatedAt": "2021-10-27T09:50:45.271Z",
  "networkType": "ethereum",
  "devdoc": {
    "methods": {}
  },
  "userdoc": {
    "methods": {}
  }
}